:020000020000FC
:0C0000000C942F000C9444000C945E0043
:100054003F065B4F666D7D077F6F2FEF2ABB27BB83
:1000640024E02EBF2FE52DBF14E02227A0E6B0E048
:100074002D931A95E9F72FE025BF20EC2BBF789438
:100084000C9442002F932FB72F93A4E6B0E02C9149
:1000940028BBA0E6B0E0A20F2C91E4E5F0E0E20F6B
:1000A40024912BBBA4E6B0E02C91239523702C93D0
:1000B4002F912FBF2F9118951F932F932FB72F9305
:1000C400A0E6B0E012E02C9123952C932A3059F449
:1000D40022272D932C9123952C93263021F422272B
:1000E4002D931A9581F72F912FBF2F911F9118955A
:00000001FF
