:020000020000FC
:1000000004E00EBF0FE50DBF4441544F5254454B21
:100010004E494B006088A8904028D0082078B0480E
:10002000E0A0F068D85010C030187098B8C8F00040
:10003000F0E0E8E00E942D000E942F000E943900AD
:100040000E942800B9F70C9463000E945A0008959A
:100050000E945A000E945A00089505910895FF9346
:10006000EF930154F0E0E8E0E00F0491EF91FF918D
:100070000895000F0E943E00E1F7089560F00C948F
:1000800041000F9301E009BB0E945A0000E009BB48
:100090000F910C9459000F9301E009BB0E945A0084
:1000A0000E945A000E945A0000E009BB0F910C9474
:1000B00059000895C79A0AE01FE11A95F1F70A95C9
:0600C000D9F7C79808956E
:00000001FF
