:020000020000FC
:100000000C9404000C941A0004E00EBF0FE50DBF21
:100010000E9460000E9466000E9424000E948200EC
:100020000E94460029F404E60E948D000E946600AA
:100030000C940C000F93B0E0A5E600916A000395C4
:1000400000936A000F911895103011F01B3021F0C9
:100050000F93009160000F9100000E9430000895FE
:100060000091600017E00E943F0000936000009143
:10007000610015E00E943F00009361000895006058
:100080001AF0011711F4025003950895FF27E0E6D6
:100090000E944F00FF27E2E60E944F000895119151
:1000A0000E9459001081E5E6E10F1081102B1083AA
:1000B000089501E01A951AF0000F0C945A00089563
:1000C0000FE005BF00EC0BBF789408950F9300E09C
:1000D0000093600002E0009361000F920F920E9473
:1000E0007B000F91009362000F91009363000E94C8
:1000F00082000F9108950EB7F02F0DB7E02F0091F9
:100100006A0008950F93A5E6B0E005E00F9300E0C4
:100110000D930A95D9F70F9108950895C79A0AE0AB
:100120001FE11A95F1F70A95D9F7C798089500E6E7
:1001300007B900E8076006B906B1006406B906B160
:0C01400006FDFDCF05B1102F107C1295BC
:00000001FF
